{
  "_format": "hh-sol-artifact-1",
  "contractName": "DiamondDao",
  "sourceName": "contracts/DiamondDao.sol",
  "abi": [
    {
      "inputs": [],
      "stateMutability": "nonpayable",
      "type": "constructor"
    },
    {
      "inputs": [
        {
          "internalType": "bytes",
          "name": "funcSelector",
          "type": "bytes"
        },
        {
          "internalType": "address",
          "name": "targetContract",
          "type": "address"
        }
      ],
      "name": "ContractCallFailed",
      "type": "error"
    },
    {
      "inputs": [],
      "name": "FailedInnerCall",
      "type": "error"
    },
    {
      "inputs": [
        {
          "internalType": "bytes4",
          "name": "funcSelector",
          "type": "bytes4"
        },
        {
          "internalType": "address",
          "name": "targetContract",
          "type": "address"
        }
      ],
      "name": "FunctionUpgradeNotAllowed",
      "type": "error"
    },
    {
      "inputs": [],
      "name": "GetterCallFailed",
      "type": "error"
    },
    {
      "inputs": [],
      "name": "InsufficientFunds",
      "type": "error"
    },
    {
      "inputs": [],
      "name": "InvalidArgument",
      "type": "error"
    },
    {
      "inputs": [],
      "name": "InvalidInitialization",
      "type": "error"
    },
    {
      "inputs": [],
      "name": "InvalidStartTimestamp",
      "type": "error"
    },
    {
      "inputs": [
        {
          "internalType": "uint256",
          "name": "currentVal",
          "type": "uint256"
        },
        {
          "internalType": "uint256",
          "name": "newVal",
          "type": "uint256"
        }
      ],
      "name": "InvalidUpgradeValue",
      "type": "error"
    },
    {
      "inputs": [],
      "name": "NewProposalsLimitExceeded",
      "type": "error"
    },
    {
      "inputs": [
        {
          "internalType": "uint256",
          "name": "_newVal",
          "type": "uint256"
        }
      ],
      "name": "NewValueOutOfRange",
      "type": "error"
    },
    {
      "inputs": [],
      "name": "NotInitializing",
      "type": "error"
    },
    {
      "inputs": [
        {
          "internalType": "uint256",
          "name": "proposalId",
          "type": "uint256"
        },
        {
          "internalType": "address",
          "name": "caller",
          "type": "address"
        }
      ],
      "name": "NotProposer",
      "type": "error"
    },
    {
      "inputs": [],
      "name": "OnlyGovernance",
      "type": "error"
    },
    {
      "inputs": [],
      "name": "OnlyProposer",
      "type": "error"
    },
    {
      "inputs": [
        {
          "internalType": "address",
          "name": "caller",
          "type": "address"
        }
      ],
      "name": "OnlyValidators",
      "type": "error"
    },
    {
      "inputs": [
        {
          "internalType": "uint256",
          "name": "proposalId",
          "type": "uint256"
        }
      ],
      "name": "OutsideExecutionWindow",
      "type": "error"
    },
    {
      "inputs": [
        {
          "internalType": "address",
          "name": "owner",
          "type": "address"
        }
      ],
      "name": "OwnableInvalidOwner",
      "type": "error"
    },
    {
      "inputs": [
        {
          "internalType": "address",
          "name": "account",
          "type": "address"
        }
      ],
      "name": "OwnableUnauthorizedAccount",
      "type": "error"
    },
    {
      "inputs": [
        {
          "internalType": "uint256",
          "name": "proposalId",
          "type": "uint256"
        }
      ],
      "name": "ProposalAlreadyExist",
      "type": "error"
    },
    {
      "inputs": [
        {
          "internalType": "uint256",
          "name": "proposalId",
          "type": "uint256"
        }
      ],
      "name": "ProposalNotExist",
      "type": "error"
    },
    {
      "inputs": [],
      "name": "ReentrancyGuardReentrantCall",
      "type": "error"
    },
    {
      "inputs": [
        {
          "internalType": "address",
          "name": "from",
          "type": "address"
        },
        {
          "internalType": "address",
          "name": "to",
          "type": "address"
        },
        {
          "internalType": "uint256",
          "name": "amount",
          "type": "uint256"
        }
      ],
      "name": "TransferFailed",
      "type": "error"
    },
    {
      "inputs": [
        {
          "internalType": "enum Phase",
          "name": "phase",
          "type": "uint8"
        }
      ],
      "name": "UnavailableInCurrentPhase",
      "type": "error"
    },
    {
      "inputs": [
        {
          "internalType": "uint256",
          "name": "proposalId",
          "type": "uint256"
        },
        {
          "internalType": "enum ProposalState",
          "name": "state",
          "type": "uint8"
        }
      ],
      "name": "UnexpectedProposalState",
      "type": "error"
    },
    {
      "inputs": [],
      "name": "UnfinalizedProposalsExist",
      "type": "error"
    },
    {
      "anonymous": false,
      "inputs": [
        {
          "indexed": false,
          "internalType": "uint64",
          "name": "version",
          "type": "uint64"
        }
      ],
      "name": "Initialized",
      "type": "event"
    },
    {
      "anonymous": false,
      "inputs": [
        {
          "indexed": true,
          "internalType": "address",
          "name": "previousOwner",
          "type": "address"
        },
        {
          "indexed": true,
          "internalType": "address",
          "name": "newOwner",
          "type": "address"
        }
      ],
      "name": "OwnershipTransferred",
      "type": "event"
    },
    {
      "anonymous": false,
      "inputs": [
        {
          "indexed": true,
          "internalType": "address",
          "name": "proposer",
          "type": "address"
        },
        {
          "indexed": true,
          "internalType": "uint256",
          "name": "proposalId",
          "type": "uint256"
        },
        {
          "indexed": false,
          "internalType": "string",
          "name": "reason",
          "type": "string"
        }
      ],
      "name": "ProposalCanceled",
      "type": "event"
    },
    {
      "anonymous": false,
      "inputs": [
        {
          "indexed": true,
          "internalType": "address",
          "name": "proposer",
          "type": "address"
        },
        {
          "indexed": true,
          "internalType": "uint256",
          "name": "proposalId",
          "type": "uint256"
        },
        {
          "indexed": false,
          "internalType": "address[]",
          "name": "targets",
          "type": "address[]"
        },
        {
          "indexed": false,
          "internalType": "uint256[]",
          "name": "values",
          "type": "uint256[]"
        },
        {
          "indexed": false,
          "internalType": "bytes[]",
          "name": "calldatas",
          "type": "bytes[]"
        },
        {
          "indexed": false,
          "internalType": "string",
          "name": "title",
          "type": "string"
        },
        {
          "indexed": false,
          "internalType": "string",
          "name": "description",
          "type": "string"
        },
        {
          "indexed": false,
          "internalType": "string",
          "name": "discussionUrl",
          "type": "string"
        }
      ],
      "name": "ProposalCreated",
      "type": "event"
    },
    {
      "anonymous": false,
      "inputs": [
        {
          "indexed": true,
          "internalType": "address",
          "name": "caller",
          "type": "address"
        },
        {
          "indexed": true,
          "internalType": "uint256",
          "name": "proposalId",
          "type": "uint256"
        }
      ],
      "name": "ProposalExecuted",
      "type": "event"
    },
    {
      "anonymous": false,
      "inputs": [
        {
          "indexed": false,
          "internalType": "string",
          "name": "funcSelector",
          "type": "string"
        }
      ],
      "name": "RemoveChangeAbleParameter",
      "type": "event"
    },
    {
      "anonymous": false,
      "inputs": [
        {
          "indexed": false,
          "internalType": "string",
          "name": "setter",
          "type": "string"
        },
        {
          "indexed": false,
          "internalType": "string",
          "name": "getter",
          "type": "string"
        },
        {
          "indexed": false,
          "internalType": "uint256[]",
          "name": "params",
          "type": "uint256[]"
        }
      ],
      "name": "SetChangeAbleParameter",
      "type": "event"
    },
    {
      "anonymous": false,
      "inputs": [
        {
          "indexed": false,
          "internalType": "bool",
          "name": "allowed",
          "type": "bool"
        },
        {
          "indexed": false,
          "internalType": "string",
          "name": "setter",
          "type": "string"
        },
        {
          "indexed": false,
          "internalType": "string",
          "name": "getter",
          "type": "string"
        },
        {
          "indexed": false,
          "internalType": "uint256[]",
          "name": "params",
          "type": "uint256[]"
        }
      ],
      "name": "SetChangeAbleParameters",
      "type": "event"
    },
    {
      "anonymous": false,
      "inputs": [
        {
          "indexed": false,
          "internalType": "uint256",
          "name": "fee",
          "type": "uint256"
        }
      ],
      "name": "SetCreateProposalFee",
      "type": "event"
    },
    {
      "anonymous": false,
      "inputs": [
        {
          "indexed": false,
          "internalType": "address",
          "name": "contractAddress",
          "type": "address"
        },
        {
          "indexed": false,
          "internalType": "bool",
          "name": "isCore",
          "type": "bool"
        }
      ],
      "name": "SetIsCoreContract",
      "type": "event"
    },
    {
      "anonymous": false,
      "inputs": [
        {
          "indexed": true,
          "internalType": "address",
          "name": "voter",
          "type": "address"
        },
        {
          "indexed": true,
          "internalType": "uint256",
          "name": "proposalId",
          "type": "uint256"
        },
        {
          "indexed": false,
          "internalType": "enum Vote",
          "name": "vote",
          "type": "uint8"
        }
      ],
      "name": "SubmitVote",
      "type": "event"
    },
    {
      "anonymous": false,
      "inputs": [
        {
          "indexed": true,
          "internalType": "address",
          "name": "voter",
          "type": "address"
        },
        {
          "indexed": true,
          "internalType": "uint256",
          "name": "proposalId",
          "type": "uint256"
        },
        {
          "indexed": false,
          "internalType": "enum Vote",
          "name": "vote",
          "type": "uint8"
        },
        {
          "indexed": false,
          "internalType": "string",
          "name": "reason",
          "type": "string"
        }
      ],
      "name": "SubmitVoteWithReason",
      "type": "event"
    },
    {
      "anonymous": false,
      "inputs": [
        {
          "indexed": false,
          "internalType": "enum Phase",
          "name": "phase",
          "type": "uint8"
        },
        {
          "indexed": false,
          "internalType": "uint256",
          "name": "start",
          "type": "uint256"
        },
        {
          "indexed": false,
          "internalType": "uint256",
          "name": "end",
          "type": "uint256"
        }
      ],
      "name": "SwitchDaoPhase",
      "type": "event"
    },
    {
      "anonymous": false,
      "inputs": [
        {
          "indexed": true,
          "internalType": "address",
          "name": "caller",
          "type": "address"
        },
        {
          "indexed": true,
          "internalType": "uint256",
          "name": "proposalId",
          "type": "uint256"
        },
        {
          "indexed": false,
          "internalType": "bool",
          "name": "accepted",
          "type": "bool"
        }
      ],
      "name": "VotingFinalized",
      "type": "event"
    },
    {
      "inputs": [],
      "name": "DAO_PHASE_DURATION",
      "outputs": [
        {
          "internalType": "uint64",
          "name": "",
          "type": "uint64"
        }
      ],
      "stateMutability": "view",
      "type": "function"
    },
    {
      "inputs": [],
      "name": "MAX_NEW_PROPOSALS",
      "outputs": [
        {
          "internalType": "uint256",
          "name": "",
          "type": "uint256"
        }
      ],
      "stateMutability": "view",
      "type": "function"
    },
    {
      "inputs": [
        {
          "internalType": "bytes4",
          "name": "",
          "type": "bytes4"
        }
      ],
      "name": "allowedParameterRange",
      "outputs": [
        {
          "internalType": "bytes4",
          "name": "getter",
          "type": "bytes4"
        }
      ],
      "stateMutability": "view",
      "type": "function"
    },
    {
      "inputs": [
        {
          "internalType": "uint256",
          "name": "proposalId",
          "type": "uint256"
        },
        {
          "internalType": "string",
          "name": "reason",
          "type": "string"
        }
      ],
      "name": "cancel",
      "outputs": [],
      "stateMutability": "nonpayable",
      "type": "function"
    },
    {
      "inputs": [
        {
          "internalType": "uint256",
          "name": "proposalId",
          "type": "uint256"
        }
      ],
      "name": "countVotes",
      "outputs": [
        {
          "components": [
            {
              "internalType": "uint64",
              "name": "countYes",
              "type": "uint64"
            },
            {
              "internalType": "uint64",
              "name": "countNo",
              "type": "uint64"
            },
            {
              "internalType": "uint256",
              "name": "stakeYes",
              "type": "uint256"
            },
            {
              "internalType": "uint256",
              "name": "stakeNo",
              "type": "uint256"
            }
          ],
          "internalType": "struct VotingResult",
          "name": "",
          "type": "tuple"
        }
      ],
      "stateMutability": "view",
      "type": "function"
    },
    {
      "inputs": [],
      "name": "createProposalFee",
      "outputs": [
        {
          "internalType": "uint256",
          "name": "",
          "type": "uint256"
        }
      ],
      "stateMutability": "view",
      "type": "function"
    },
    {
      "inputs": [
        {
          "internalType": "uint256",
          "name": "",
          "type": "uint256"
        }
      ],
      "name": "currentPhaseProposals",
      "outputs": [
        {
          "internalType": "uint256",
          "name": "",
          "type": "uint256"
        }
      ],
      "stateMutability": "view",
      "type": "function"
    },
    {
      "inputs": [
        {
          "internalType": "uint256",
          "name": "",
          "type": "uint256"
        },
        {
          "internalType": "address",
          "name": "",
          "type": "address"
        }
      ],
      "name": "daoEpochStakeSnapshot",
      "outputs": [
        {
          "internalType": "uint256",
          "name": "",
          "type": "uint256"
        }
      ],
      "stateMutability": "view",
      "type": "function"
    },
    {
      "inputs": [],
      "name": "daoPhase",
      "outputs": [
        {
          "internalType": "uint64",
          "name": "start",
          "type": "uint64"
        },
        {
          "internalType": "uint64",
          "name": "end",
          "type": "uint64"
        },
        {
          "internalType": "uint64",
          "name": "daoEpoch",
          "type": "uint64"
        },
        {
          "internalType": "enum Phase",
          "name": "phase",
          "type": "uint8"
        }
      ],
      "stateMutability": "view",
      "type": "function"
    },
    {
      "inputs": [],
      "name": "daoPhaseCount",
      "outputs": [
        {
          "internalType": "uint256",
          "name": "",
          "type": "uint256"
        }
      ],
      "stateMutability": "view",
      "type": "function"
    },
    {
      "inputs": [
        {
          "internalType": "uint256",
          "name": "proposalId",
          "type": "uint256"
        }
      ],
      "name": "execute",
      "outputs": [],
      "stateMutability": "nonpayable",
      "type": "function"
    },
    {
      "inputs": [
        {
          "internalType": "uint256",
          "name": "proposalId",
          "type": "uint256"
        }
      ],
      "name": "finalize",
      "outputs": [],
      "stateMutability": "nonpayable",
      "type": "function"
    },
    {
      "inputs": [
        {
          "internalType": "string",
          "name": "_selector",
          "type": "string"
        }
      ],
      "name": "getAllowedParamsRange",
      "outputs": [
        {
          "components": [
            {
              "internalType": "bytes4",
              "name": "getter",
              "type": "bytes4"
            },
            {
              "internalType": "uint256[]",
              "name": "range",
              "type": "uint256[]"
            }
          ],
          "internalType": "struct ValueGuards.ParameterRange",
          "name": "",
          "type": "tuple"
        }
      ],
      "stateMutability": "view",
      "type": "function"
    },
    {
      "inputs": [],
      "name": "getCurrentPhaseProposals",
      "outputs": [
        {
          "internalType": "uint256[]",
          "name": "",
          "type": "uint256[]"
        }
      ],
      "stateMutability": "view",
      "type": "function"
    },
    {
      "inputs": [
        {
          "internalType": "uint256",
          "name": "proposalId",
          "type": "uint256"
        }
      ],
      "name": "getProposal",
      "outputs": [
        {
          "components": [
            {
              "internalType": "address",
              "name": "proposer",
              "type": "address"
            },
            {
              "internalType": "uint64",
              "name": "votingDaoEpoch",
              "type": "uint64"
            },
            {
              "internalType": "enum ProposalState",
              "name": "state",
              "type": "uint8"
            },
            {
              "internalType": "address[]",
              "name": "targets",
              "type": "address[]"
            },
            {
              "internalType": "uint256[]",
              "name": "values",
              "type": "uint256[]"
            },
            {
              "internalType": "bytes[]",
              "name": "calldatas",
              "type": "bytes[]"
            },
            {
              "internalType": "string",
              "name": "title",
              "type": "string"
            },
            {
              "internalType": "string",
              "name": "description",
              "type": "string"
            },
            {
              "internalType": "string",
              "name": "discussionUrl",
              "type": "string"
            },
            {
              "internalType": "uint256",
              "name": "daoPhaseCount",
              "type": "uint256"
            },
            {
              "internalType": "enum ProposalType",
              "name": "proposalType",
              "type": "uint8"
            }
          ],
          "internalType": "struct Proposal",
          "name": "",
          "type": "tuple"
        }
      ],
      "stateMutability": "view",
      "type": "function"
    },
    {
      "inputs": [
        {
          "internalType": "uint256",
          "name": "proposalId",
          "type": "uint256"
        }
      ],
      "name": "getProposalVoters",
      "outputs": [
        {
          "internalType": "address[]",
          "name": "",
          "type": "address[]"
        }
      ],
      "stateMutability": "view",
      "type": "function"
    },
    {
      "inputs": [
        {
          "internalType": "uint256",
          "name": "proposalId",
          "type": "uint256"
        }
      ],
      "name": "getProposalVotersCount",
      "outputs": [
        {
          "internalType": "uint256",
          "name": "",
          "type": "uint256"
        }
      ],
      "stateMutability": "view",
      "type": "function"
    },
    {
      "inputs": [],
      "name": "governancePot",
      "outputs": [
        {
          "internalType": "uint256",
          "name": "",
          "type": "uint256"
        }
      ],
      "stateMutability": "view",
      "type": "function"
    },
    {
      "inputs": [
        {
          "internalType": "address[]",
          "name": "targets",
          "type": "address[]"
        },
        {
          "internalType": "uint256[]",
          "name": "values",
          "type": "uint256[]"
        },
        {
          "internalType": "bytes[]",
          "name": "calldatas",
          "type": "bytes[]"
        },
        {
          "internalType": "string",
          "name": "description",
          "type": "string"
        }
      ],
      "name": "hashProposal",
      "outputs": [
        {
          "internalType": "uint256",
          "name": "",
          "type": "uint256"
        }
      ],
      "stateMutability": "pure",
      "type": "function"
    },
    {
      "inputs": [
        {
          "internalType": "string",
          "name": "setter",
          "type": "string"
        },
        {
          "internalType": "string",
          "name": "getter",
          "type": "string"
        },
        {
          "internalType": "uint256[]",
          "name": "params",
          "type": "uint256[]"
        }
      ],
      "name": "initAllowedChangeableParameter",
      "outputs": [],
      "stateMutability": "nonpayable",
      "type": "function"
    },
    {
      "inputs": [
        {
          "internalType": "address",
          "name": "_validatorSet",
          "type": "address"
        },
        {
          "internalType": "address",
          "name": "_stakingHbbft",
          "type": "address"
        },
        {
          "internalType": "address",
          "name": "_reinsertPot",
          "type": "address"
        },
        {
          "internalType": "address",
          "name": "_txPermission",
          "type": "address"
        },
        {
          "internalType": "uint256",
          "name": "_createProposalFee",
          "type": "uint256"
        },
        {
          "internalType": "uint64",
          "name": "_startTimestamp",
          "type": "uint64"
        }
      ],
      "name": "initialize",
      "outputs": [],
      "stateMutability": "nonpayable",
      "type": "function"
    },
    {
      "inputs": [
        {
          "internalType": "address",
          "name": "",
          "type": "address"
        }
      ],
      "name": "isCoreContract",
      "outputs": [
        {
          "internalType": "bool",
          "name": "",
          "type": "bool"
        }
      ],
      "stateMutability": "view",
      "type": "function"
    },
    {
      "inputs": [
        {
          "internalType": "bytes4",
          "name": "funcSelector",
          "type": "bytes4"
        },
        {
          "internalType": "uint256",
          "name": "newVal",
          "type": "uint256"
        }
      ],
      "name": "isWithinAllowedRange",
      "outputs": [
        {
          "internalType": "bool",
          "name": "",
          "type": "bool"
        }
      ],
      "stateMutability": "view",
      "type": "function"
    },
    {
      "inputs": [],
      "name": "lastDaoPhaseCount",
      "outputs": [
        {
          "internalType": "uint256",
          "name": "",
          "type": "uint256"
        }
      ],
      "stateMutability": "view",
      "type": "function"
    },
    {
      "inputs": [],
      "name": "owner",
      "outputs": [
        {
          "internalType": "address",
          "name": "",
          "type": "address"
        }
      ],
      "stateMutability": "view",
      "type": "function"
    },
    {
      "inputs": [
        {
          "internalType": "uint256",
          "name": "proposalId",
          "type": "uint256"
        }
      ],
      "name": "proposalExists",
      "outputs": [
        {
          "internalType": "bool",
          "name": "",
          "type": "bool"
        }
      ],
      "stateMutability": "view",
      "type": "function"
    },
    {
      "inputs": [
        {
          "internalType": "uint256",
          "name": "",
          "type": "uint256"
        }
      ],
      "name": "proposals",
      "outputs": [
        {
          "internalType": "address",
          "name": "proposer",
          "type": "address"
        },
        {
          "internalType": "uint64",
          "name": "votingDaoEpoch",
          "type": "uint64"
        },
        {
          "internalType": "enum ProposalState",
          "name": "state",
          "type": "uint8"
        },
        {
          "internalType": "string",
          "name": "title",
          "type": "string"
        },
        {
          "internalType": "string",
          "name": "description",
          "type": "string"
        },
        {
          "internalType": "string",
          "name": "discussionUrl",
          "type": "string"
        },
        {
          "internalType": "uint256",
          "name": "daoPhaseCount",
          "type": "uint256"
        },
        {
          "internalType": "enum ProposalType",
          "name": "proposalType",
          "type": "uint8"
        }
      ],
      "stateMutability": "view",
      "type": "function"
    },
    {
      "inputs": [
        {
          "internalType": "address[]",
          "name": "targets",
          "type": "address[]"
        },
        {
          "internalType": "uint256[]",
          "name": "values",
          "type": "uint256[]"
        },
        {
          "internalType": "bytes[]",
          "name": "calldatas",
          "type": "bytes[]"
        },
        {
          "internalType": "string",
          "name": "title",
          "type": "string"
        },
        {
          "internalType": "string",
          "name": "description",
          "type": "string"
        },
        {
          "internalType": "string",
          "name": "discussionUrl",
          "type": "string"
        }
      ],
      "name": "propose",
      "outputs": [],
      "stateMutability": "payable",
      "type": "function"
    },
    {
      "inputs": [
        {
          "internalType": "enum ProposalType",
          "name": "_type",
          "type": "uint8"
        },
        {
          "components": [
            {
              "internalType": "uint64",
              "name": "countYes",
              "type": "uint64"
            },
            {
              "internalType": "uint64",
              "name": "countNo",
              "type": "uint64"
            },
            {
              "internalType": "uint256",
              "name": "stakeYes",
              "type": "uint256"
            },
            {
              "internalType": "uint256",
              "name": "stakeNo",
              "type": "uint256"
            }
          ],
          "internalType": "struct VotingResult",
          "name": "result",
          "type": "tuple"
        }
      ],
      "name": "quorumReached",
      "outputs": [
        {
          "internalType": "bool",
          "name": "",
          "type": "bool"
        }
      ],
      "stateMutability": "view",
      "type": "function"
    },
    {
      "inputs": [],
      "name": "reinsertPot",
      "outputs": [
        {
          "internalType": "address",
          "name": "",
          "type": "address"
        }
      ],
      "stateMutability": "view",
      "type": "function"
    },
    {
      "inputs": [
        {
          "internalType": "string",
          "name": "funcSelector",
          "type": "string"
        }
      ],
      "name": "removeAllowedChangeableParameter",
      "outputs": [],
      "stateMutability": "nonpayable",
      "type": "function"
    },
    {
      "inputs": [],
      "name": "renounceOwnership",
      "outputs": [],
      "stateMutability": "nonpayable",
      "type": "function"
    },
    {
      "inputs": [
        {
          "internalType": "uint256",
          "name": "",
          "type": "uint256"
        }
      ],
      "name": "results",
      "outputs": [
        {
          "internalType": "uint64",
          "name": "countYes",
          "type": "uint64"
        },
        {
          "internalType": "uint64",
          "name": "countNo",
          "type": "uint64"
        },
        {
          "internalType": "uint256",
          "name": "stakeYes",
          "type": "uint256"
        },
        {
          "internalType": "uint256",
          "name": "stakeNo",
          "type": "uint256"
        }
      ],
      "stateMutability": "view",
      "type": "function"
    },
    {
      "inputs": [
        {
          "internalType": "string",
          "name": "setter",
          "type": "string"
        },
        {
          "internalType": "string",
          "name": "getter",
          "type": "string"
        },
        {
          "internalType": "uint256[]",
          "name": "params",
          "type": "uint256[]"
        }
      ],
      "name": "setAllowedChangeableParameter",
      "outputs": [],
      "stateMutability": "nonpayable",
      "type": "function"
    },
    {
      "inputs": [
        {
          "internalType": "uint256",
          "name": "_fee",
          "type": "uint256"
        }
      ],
      "name": "setCreateProposalFee",
      "outputs": [],
      "stateMutability": "nonpayable",
      "type": "function"
    },
    {
      "inputs": [
        {
          "internalType": "address",
          "name": "_add",
          "type": "address"
        },
        {
          "internalType": "bool",
          "name": "isCore",
          "type": "bool"
        }
      ],
      "name": "setIsCoreContract",
      "outputs": [],
      "stateMutability": "nonpayable",
      "type": "function"
    },
    {
      "inputs": [],
      "name": "stakingHbbft",
      "outputs": [
        {
          "internalType": "contract IStakingHbbft",
          "name": "",
          "type": "address"
        }
      ],
      "stateMutability": "view",
      "type": "function"
    },
    {
      "inputs": [],
      "name": "statistic",
      "outputs": [
        {
          "internalType": "uint64",
          "name": "total",
          "type": "uint64"
        },
        {
          "internalType": "uint64",
          "name": "accepted",
          "type": "uint64"
        },
        {
          "internalType": "uint64",
          "name": "declined",
          "type": "uint64"
        },
        {
          "internalType": "uint64",
          "name": "canceled",
          "type": "uint64"
        }
      ],
      "stateMutability": "view",
      "type": "function"
    },
    {
      "inputs": [],
      "name": "switchPhase",
      "outputs": [],
      "stateMutability": "nonpayable",
      "type": "function"
    },
    {
      "inputs": [
        {
          "internalType": "address",
          "name": "newOwner",
          "type": "address"
        }
      ],
      "name": "transferOwnership",
      "outputs": [],
      "stateMutability": "nonpayable",
      "type": "function"
    },
    {
      "inputs": [],
      "name": "unfinalizedProposals",
      "outputs": [
        {
          "internalType": "uint256",
          "name": "",
          "type": "uint256"
        }
      ],
      "stateMutability": "view",
      "type": "function"
    },
    {
      "inputs": [],
      "name": "unfinalizedProposalsExist",
      "outputs": [
        {
          "internalType": "bool",
          "name": "",
          "type": "bool"
        }
      ],
      "stateMutability": "view",
      "type": "function"
    },
    {
      "inputs": [],
      "name": "validatorSet",
      "outputs": [
        {
          "internalType": "contract IValidatorSetHbbft",
          "name": "",
          "type": "address"
        }
      ],
      "stateMutability": "view",
      "type": "function"
    },
    {
      "inputs": [
        {
          "internalType": "uint256",
          "name": "proposalId",
          "type": "uint256"
        },
        {
          "internalType": "enum Vote",
          "name": "_vote",
          "type": "uint8"
        }
      ],
      "name": "vote",
      "outputs": [],
      "stateMutability": "nonpayable",
      "type": "function"
    },
    {
      "inputs": [
        {
          "internalType": "uint256",
          "name": "proposalId",
          "type": "uint256"
        },
        {
          "internalType": "enum Vote",
          "name": "_vote",
          "type": "uint8"
        },
        {
          "internalType": "string",
          "name": "reason",
          "type": "string"
        }
      ],
      "name": "voteWithReason",
      "outputs": [],
      "stateMutability": "nonpayable",
      "type": "function"
    },
    {
      "inputs": [
        {
          "internalType": "uint256",
          "name": "",
          "type": "uint256"
        },
        {
          "internalType": "address",
          "name": "",
          "type": "address"
        }
      ],
      "name": "votes",
      "outputs": [
        {
          "internalType": "uint64",
          "name": "timestamp",
          "type": "uint64"
        },
        {
          "internalType": "enum Vote",
          "name": "vote",
          "type": "uint8"
        },
        {
          "internalType": "string",
          "name": "reason",
          "type": "string"
        }
      ],
      "stateMutability": "view",
      "type": "function"
    },
    {
      "stateMutability": "payable",
      "type": "receive"
    }
  ],
  "bytecode": "0x6080604052348015600f57600080fd5b506016601a565b60ca565b7ff0c57e16840df040f15088dc2f81fe391c3923bec73e23a9662efc9c229c6a00805468010000000000000000900460ff161560695760405163f92ee8a960e01b815260040160405180910390fd5b80546001600160401b039081161460c75780546001600160401b0319166001600160401b0390811782556040519081527fc7f505b2f371ae2175ee4913f4499e1f2633a7b5936321eed1cdaeb6115181d29060200160405180910390a15b50565b614f66806100d96000396000f3fe6080604052600436106103015760003560e01c8063950e3e441161018f578063c3b66bed116100e1578063efa65b481161008a578063fa1f072711610064578063fa1f072714610a72578063fe0d94c114610a88578063ff71d67714610aa857600080fd5b8063efa65b4814610a27578063f22d232614610a3c578063f2fde38b14610a5257600080fd5b8063d23254b4116100bb578063d23254b4146109c2578063ec47c471146109f1578063ed965ddc14610a0757600080fd5b8063c3b66bed14610945578063c7f758a814610965578063d22a20cd1461099257600080fd5b8063ab0eb62d11610143578063b710c15d1161011d578063b710c15d146108e2578063ba08d2371461090f578063be0a4e4b1461092f57600080fd5b8063ab0eb62d1461085d578063ab266e1014610872578063b131b6a51461089257600080fd5b80639b9fb6d0116101745780639b9fb6d0146107e2578063a68f34f714610802578063aa72e3b91461082f57600080fd5b8063950e3e44146107a057806395dd7fb9146107c057600080fd5b80633c5fc711116102535780637293368d116101fc57806392283634116101d657806392283634146107175780639426e22614610760578063943e82161461078057600080fd5b80637293368d146106a757806373f12958146106ba5780638da5cb5b146106da57600080fd5b80635e8815f21161022d5780635e8815f21461063a5780636b6d33da1461065a578063715018a61461069257600080fd5b80633c5fc711146105885780633de2598c146105fa5780635cb092a21461061a57600080fd5b80631536f472116102b55780632baffa3f1161028f5780632baffa3f1461052457806331e407331461054857806336e98ca81461056857600080fd5b80631536f472146104245780631840f0ca146104445780631b0c27da146104a957600080fd5b806311693b21116102e657806311693b21146103845780631243e6cb146103b45780631374b22d146103ec57600080fd5b8063013cf08b1461032557806305261aea1461036257600080fd5b366103205734600460008282546103189190613e1c565b925050819055005b600080fd5b34801561033157600080fd5b50610345610340366004613e2f565b610abe565b604051610359989796959493929190613edb565b60405180910390f35b34801561036e57600080fd5b5061038261037d366004613e2f565b610cb5565b005b34801561039057600080fd5b506103a461039f366004613ffe565b610ec6565b6040519015158152602001610359565b3480156103c057600080fd5b506006546103d4906001600160a01b031681565b6040516001600160a01b039091168152602001610359565b3480156103f857600080fd5b506103a4610407366004613e2f565b6000908152600a60205260409020546001600160a01b0316151590565b34801561043057600080fd5b5061038261043f3660046140dd565b610f4c565b34801561045057600080fd5b5061046461045f366004613e2f565b611060565b604051610359919060006080820190506001600160401b0380845116835280602085015116602084015250604083015160408301526060830151606083015292915050565b3480156104b557600080fd5b506104f96104c4366004613e2f565b600c602052600090815260409020805460018201546002909201546001600160401b0380831693600160401b90930416919084565b604080516001600160401b039586168152949093166020850152918301526060820152608001610359565b34801561053057600080fd5b5061053a60045481565b604051908152602001610359565b34801561055457600080fd5b50610382610563366004614128565b6111f4565b34801561057457600080fd5b5061038261058336600461428c565b611339565b34801561059457600080fd5b506007546105c7906001600160401b0380821691600160401b8104821691600160801b8204811691600160c01b90041684565b604080516001600160401b0395861681529385166020850152918416918301919091529091166060820152608001610359565b34801561060657600080fd5b50610382610615366004614328565b6113ed565b34801561062657600080fd5b5061038261063536600461428c565b6118d1565b34801561064657600080fd5b506103826106553660046143ab565b6118d9565b34801561066657600080fd5b5061053a6106753660046143e4565b600e60209081526000928352604080842090915290825290205481565b34801561069e57600080fd5b5061038261195d565b6103826106b5366004614505565b611971565b3480156106c657600080fd5b506002546103d4906001600160a01b031681565b3480156106e657600080fd5b507f9016d09d72d40fdae2fd8ceac6b6234c7706214fd39c1cd1e609a0528c199300546001600160a01b03166103d4565b34801561072357600080fd5b5061074761073236600461460f565b60006020819052908152604090205460e01b81565b6040516001600160e01b03199091168152602001610359565b34801561076c57600080fd5b506005546103d4906001600160a01b031681565b34801561078c57600080fd5b5061038261079b36600461462c565b611caf565b3480156107ac57600080fd5b5061053a6107bb366004614651565b611db8565b3480156107cc57600080fd5b506107d5611dfe565b6040516103599190614739565b3480156107ee57600080fd5b506103826107fd36600461474c565b611e56565b34801561080e57600080fd5b5061082261081d366004613e2f565b611ed5565b60405161035991906147c2565b34801561083b57600080fd5b50610845611c2081565b6040516001600160401b039091168152602001610359565b34801561086957600080fd5b50610382611eef565b34801561087e57600080fd5b5061038261088d366004613e2f565b612232565b34801561089e57600080fd5b506008546108d2906001600160401b0380821691600160401b8104821691600160801b82041690600160c01b900460ff1684565b60405161035994939291906147e5565b3480156108ee57600080fd5b506109026108fd36600461474c565b6122be565b6040516103599190614812565b34801561091b57600080fd5b506103a461092a366004614840565b612366565b34801561093b57600080fd5b5061053a60125481565b34801561095157600080fd5b5061053a610960366004613e2f565b612535565b34801561097157600080fd5b50610985610980366004613e2f565b61254c565b60405161035991906148c6565b34801561099e57600080fd5b506103a46109ad3660046149f0565b600b6020526000908152604090205460ff1681565b3480156109ce57600080fd5b506109e26109dd3660046143e4565b612956565b60405161035993929190614a0d565b3480156109fd57600080fd5b5061053a6103e881565b348015610a1357600080fd5b5061053a610a22366004613e2f565b612a1c565b348015610a3357600080fd5b506103a4612a3d565b348015610a4857600080fd5b5061053a60035481565b348015610a5e57600080fd5b50610382610a6d3660046149f0565b612a66565b348015610a7e57600080fd5b5061053a60115481565b348015610a9457600080fd5b50610382610aa3366004613e2f565b612aa4565b348015610ab457600080fd5b5061053a60015481565b600a60205260009081526040902080546004820180546001600160a01b03831693600160a01b84046001600160401b031693600160e01b900460ff16929091610b0690614a3e565b80601f0160208091040260200160405190810160405280929190818152602001828054610b3290614a3e565b8015610b7f5780601f10610b5457610100808354040283529160200191610b7f565b820191906000526020600020905b815481529060010190602001808311610b6257829003601f168201915b505050505090806005018054610b9490614a3e565b80601f0160208091040260200160405190810160405280929190818152602001828054610bc090614a3e565b8015610c0d5780601f10610be257610100808354040283529160200191610c0d565b820191906000526020600020905b815481529060010190602001808311610bf057829003601f168201915b505050505090806006018054610c2290614a3e565b80601f0160208091040260200160405190810160405280929190818152602001828054610c4e90614a3e565b8015610c9b5780601f10610c7057610100808354040283529160200191610c9b565b820191906000526020600020905b815481529060010190602001808311610c7e57829003601f168201915b50505050600783015460089093015491929160ff16905088565b6000818152600a602052604090205481906001600160a01b0316610cf45760405163986731a160e01b8152600481018290526024015b60405180910390fd5b610cff826003612d0d565b6000828152600a6020526040812090610d19846001612d69565b6000858152600c602090815260409182902090830151815484516fffffffffffffffffffffffffffffffff19909116600160401b6001600160401b039384160267ffffffffffffffff1916179116178155606083015160028201559082015160019091015590506008820154600090610d959060ff1683610ec6565b905080610da3576005610da6565b60045b8354849060ff60e01b1916600160e01b836006811115610dc857610dc8613e48565b02179055508015610e22576007805460019190600890610df9908490600160401b90046001600160401b0316614a72565b92506101000a8154816001600160401b0302191690836001600160401b03160217905550610e6d565b6007805460019190601090610e48908490600160801b90046001600160401b0316614a72565b92506101000a8154816001600160401b0302191690836001600160401b031602179055505b600160116000828254610e809190614a92565b90915550506040518115158152859033907f4a82eb80f2a86beb92f5670422f698264b3511048a29b400a6a1ce684769581e906020015b60405180910390a35050505050565b6000806000610ed3612f94565b90506001856002811115610ee957610ee9613e48565b03610f0e57612710610efd82611388614aa5565b610f079190614abc565b9150610f2a565b612710610f1d82610ce4614aa5565b610f279190614abc565b91505b818460600151610f3a9190613e1c565b84604001511015925050505b92915050565b6000838152600a602052604090205483906001600160a01b0316610f865760405163986731a160e01b815260048101829052602401610ceb565b6000848152600a6020526040902080546001600160a01b03163314610fbe57604051630608c7c960e51b815260040160405180910390fd5b610fc9856000612d0d565b805460ff60e01b1916600160e01b1781556007805460019190601890611000908490600160c01b90046001600160401b0316614a72565b92506101000a8154816001600160401b0302191690836001600160401b0316021790555084336001600160a01b03167fd16ff8053e1476416f5be14c32305a3652ac0b182ac04ede8c101d867b75bd148686604051610eb7929190614b07565b6040805160808101825260008082526020820181905291810182905260608101919091526000828152600a602052604090205482906001600160a01b03166110be5760405163986731a160e01b815260048101829052602401610ceb565b6000838152600a6020526040902054600160e01b900460ff1660048160068111156110eb576110eb613e48565b14806111085750600581600681111561110657611106613e48565b145b806111245750600681600681111561112257611122613e48565b145b1561118157506000838152600c6020908152604091829020825160808101845281546001600160401b038082168352600160401b9091041692810192909252600181015492820192909252600290910154606082015291506111ee565b600381600681111561119557611195613e48565b036111ad576111a5846001612d69565b9250506111ee565b60028160068111156111c1576111c1613e48565b036111d1576111a5846000612d69565b838160405163605cfad560e01b8152600401610ceb929190614b1b565b50919050565b6000848152600a602052604090205484906001600160a01b031661122e5760405163986731a160e01b815260048101829052602401610ceb565b600180600854600160c01b900460ff16600181111561124f5761124f613e48565b1461127b576008546040516378030af960e11b8152610ceb91600160c01b900460ff1690600401614b2f565b61128433613007565b6112a35760405163fb426bed60e01b8152336004820152602401610ceb565b60003390506112ea81888888888080601f01602080910402602001604051908101604052809392919081815260200183838082843760009201919091525061316592505050565b86816001600160a01b03167fde85a12bb3f2d766e67cf54febc7c53ae9c500da072f8fdfb34aba5ca5525ebf88888860405161132893929190614b3d565b60405180910390a350505050505050565b611341613276565b60408051808201825283516020808601919091206001600160e01b031990811683528183018581528751888401209091166000908152808352939093208251815463ffffffff191660e09190911c178155925180519293926113a99260018501920190613c13565b509050507f3d45a310c5a076ea07aa2947ca3c06cc2a8b3571065867ad6f8e7096a2c9d50a8383836040516113e093929190614b60565b60405180910390a1505050565b7ff0c57e16840df040f15088dc2f81fe391c3923bec73e23a9662efc9c229c6a008054600160401b810460ff1615906001600160401b03166000811580156114325750825b90506000826001600160401b0316600114801561144e5750303b155b90508115801561145c575080155b1561147a5760405163f92ee8a960e01b815260040160405180910390fd5b845467ffffffffffffffff1916600117855583156114a957845468ff00000000000000001916600160401b1785555b6001600160a01b038b1615806114c657506001600160a01b038916155b806114d857506001600160a01b038a16155b806114e1575086155b156114ff5760405163a9cb9e0d60e01b815260040160405180910390fd5b42866001600160401b03161015611529576040516307f5e89560e51b815260040160405180910390fd5b6115316132d1565b6005805473ffffffffffffffffffffffffffffffffffffffff199081166001600160a01b038e8116919091179092556006805482168d841617905560028054909116918b1691909117905560038790556008805467ffffffffffffffff19166001600160401b0388161790556115a9611c2087614a72565b600880546001600160401b0392909216600160401b027fffffffffffffff000000000000000000ffffffffffffffffffffffffffffffff167fffffffffffffff0000000000000000000000000000000000ffffffffffffffff90921691909117600160801b1790556001805560408051600980825261014082019092526000916020820161012080368337019050509050678ac7230489e800008160008151811061165657611656614ba3565b6020026020010181815250506801158e460913d000008160018151811061167f5761167f614ba3565b6020026020010181815250506801a055690d9db80000816002815181106116a8576116a8614ba3565b60200260200101818152505068022b1c8c1227a00000816003815181106116d1576116d1614ba3565b6020026020010181815250506802b5e3af16b1880000816004815181106116fa576116fa614ba3565b602002602001018181525050680340aad21b3b7000008160058151811061172357611723614ba3565b6020026020010181815250506803cb71f51fc55800008160068151811061174c5761174c614ba3565b6020026020010181815250506804563918244f4000008160078151811061177557611775614ba3565b6020026020010181815250506804e1003b28d92800008160088151811061179e5761179e614ba3565b60200260200101818152505061181f6040518060400160405280601d81526020017f73657443726561746550726f706f73616c4665652875696e74323536290000008152506040518060400160405280601381526020017f63726561746550726f706f73616c466565282900000000000000000000000000815250836118d1565b50306000908152600b60205260408082208054600160ff1991821681179092556001600160a01b038e8116855283852080548316841790558c8116855283852080548316841790558d168452919092208054909116909117905583156118c457845468ff000000000000000019168555604051600181527fc7f505b2f371ae2175ee4913f4499e1f2633a7b5936321eed1cdaeb6115181d29060200160405180910390a15b5050505050505050505050565b6113416132e1565b3330146118f9576040516354348f0360e01b815260040160405180910390fd5b6001600160a01b0382166000818152600b6020908152604091829020805460ff19168515159081179091558251938452908301527fc73e95af540565c649d9453cb23b01f505752b94f04ff81b52ce528047232f2391015b60405180910390a15050565b611965613276565b61196f600061332a565b565b600080600854600160c01b900460ff16600181111561199257611992613e48565b146119be576008546040516378030af960e11b8152610ceb91600160c01b900460ff1690600401614b2f565b6119c6612a3d565b156119e45760405163fd081cf960e01b815260040160405180910390fd5b600154601254146119f6576001546012555b85518751141580611a0957508451875114155b80611a1357508651155b15611a315760405163a9cb9e0d60e01b815260040160405180910390fd5b6003543414611a535760405163356680b760e01b815260040160405180910390fd5b6009546103e811611a7757604051633f2ad2e160e11b815260040160405180910390fd5b6000611a8388876133a8565b90506000611a9389898988611db8565b6000818152600a60205260409020549091506001600160a01b031615611acf5760405163d3df438360e01b815260048101829052602401610ceb565b6000818152600a6020908152604090912080547fffffff00ffffffffffffffff0000000000000000000000000000000000000000163360ff60e01b1981169190911782558b519092611b289160018401918e0190613c5e565b508951611b3e90600283019060208d0190613c13565b508851611b5490600383019060208c0190613cc0565b5060048101611b638982614c09565b5060058101611b728882614c09565b5060068101611b818782614c09565b50600180546007830155600882018054869260ff1990911690836002811115611bac57611bac613e48565b0217905550600980546001818101835560009283527f6e1540171b6c0c960b71a7020d9f60077f6af931a8bbf590da0223dacf75c7af9091018590556007805491929091611c049084906001600160401b0316614a72565b92506101000a8154816001600160401b0302191690836001600160401b03160217905550600160116000828254611c3b9190613e1c565b9091555050600254611c56906001600160a01b031634613663565b82826001600160a01b03167f0862e0d24b6284416802acfafc53281043e0ef028202f20e81e6e3c133e78a888d8d8d8d8d8d604051611c9a96959493929190614cc8565b60405180910390a35050505050505050505050565b6000828152600a602052604090205482906001600160a01b0316611ce95760405163986731a160e01b815260048101829052602401610ceb565b600180600854600160c01b900460ff166001811115611d0a57611d0a613e48565b14611d36576008546040516378030af960e11b8152610ceb91600160c01b900460ff1690600401614b2f565b611d3f33613007565b611d5e5760405163fb426bed60e01b8152336004820152602401610ceb565b6000339050611d7e81868660405180602001604052806000815250613165565b84816001600160a01b03167f343f24b88bd3789b60993251090e2184e0e4ae199d79b14a510fc1a08b51f51486604051610eb79190614d4a565b6000808280519060200120905085858583604051602001611ddc9493929190614d5d565b60408051601f1981840301815291905280516020909101209695505050505050565b60606009805480602002602001604051908101604052809291908181526020018280548015611e4c57602002820191906000526020600020905b815481526020019060010190808311611e38575b5050505050905090565b611e5e613276565b80516020808301919091206001600160e01b03191660009081529081905260408120805463ffffffff1916815590611e996001830182613d12565b50507f92d44565a40fe29702ffa146ddaa3bb133d4077f5312d682d0a2632a9bc73a8a81604051611eca9190614da8565b60405180910390a150565b6000818152601060205260409020606090610f46906136ef565b600854600160401b90046001600160401b0316421015611f0b57565b600080600854600160c01b900460ff166001811115611f2c57611f2c613e48565b14611f38576000611f3b565b60015b600854909150600090611f5f90600160401b90046001600160401b03166001614a72565b6008805467ffffffffffffffff19166001600160401b0383161790559050611f89611c2082614a72565b600880546001600160401b0392909216600160401b026fffffffffffffffff00000000000000001983168117825584927fffffffffffffff00ffffffffffffffffffffffffffffffffffffffffffffffff9091167fffffffffffffff00ffffffffffffffff0000000000000000ffffffffffffffff90911617600160c01b83600181111561201957612019613e48565b02179055506000600183600181111561203457612034613e48565b14612040576003612043565b60025b90506000600382600681111561205b5761205b613e48565b14905060005b6009548110156121275760006009828154811061208057612080614ba3565b6000918252602080832090910154808352600a90915260409091208054919250859160ff60e01b1916600160e01b8360068111156120c0576120c0613e48565b0217905550821561211e576008546000828152600a6020526040902080547fffffffff0000000000000000ffffffffffffffffffffffffffffffffffffffff16600160801b9092046001600160401b0316600160a01b029190911790555b50600101612061565b5080156121955760085461214a90600160801b90046001600160401b03166136fc565b6008805460019190601090612170908490600160801b90046001600160401b0316614a72565b92506101000a8154816001600160401b0302191690836001600160401b031602179055505b60008460018111156121a9576121a9613e48565b036121d25760018060008282546121c09190613e1c565b909155506121d2905060096000613d12565b6008546040517f4887f063ba2113285aba0e893c372b65da5e458b463fb01fdf1fe0d266acff0e916122249160ff600160c01b830416916001600160401b0380821692600160401b9092041690614dbb565b60405180910390a150505050565b333014612252576040516354348f0360e01b815260040160405180910390fd5b806122696000356001600160e01b03191682612366565b612289576040516373330d9b60e01b815260048101829052602401610ceb565b60038290556040518281527f7d6e1cf0de9a5ba39e02e05972eb08471682fc361b20458a3f200f7bf087b53590602001611951565b60408051808201909152600081526060602082015281516020808401919091206001600160e01b0319908116600090815280835260409081902081518083018352815460e01b909316835260018101805483518187028101870190945280845293949193858301939283018282801561235657602002820191906000526020600020905b815481526020019060010190808311612342575b5050505050815250509050919050565b6001600160e01b031980831660009081526020818152604080832081518083018352815460e01b9095168552600181018054835181860281018601909452808452949586959094929385840193909291908301828280156123e657602002820191906000526020600020905b8154815260200190600101908083116123d2575b5050505050815250509050806020015151600003612408576000915050610f46565b6020810151815160009061241b906137fa565b905060005b8251811015612528578183828151811061243c5761243c614ba3565b602002602001015103612520576000808211612472578360008151811061246557612465614ba3565b6020026020010151612497565b8361247e600184614a92565b8151811061248e5761248e614ba3565b60200260200101515b90506000600185516124a99190614a92565b83106124db5784600186516124be9190614a92565b815181106124ce576124ce614ba3565b6020026020010151612500565b846124e7846001613e1c565b815181106124f7576124f7614ba3565b60200260200101515b90508188141580156125125750808814155b159650505050505050610f46565b600101612420565b5060009695505050505050565b6000818152601060205260408120610f46906138d1565b612554613d30565b6000828152600a602090815260409182902082516101608101845281546001600160a01b0381168252600160a01b81046001600160401b03169382019390935292909190830190600160e01b900460ff1660068111156125b6576125b6613e48565b60068111156125c7576125c7613e48565b81526020016001820180548060200260200160405190810160405280929190818152602001828054801561262457602002820191906000526020600020905b81546001600160a01b03168152600190910190602001808311612606575b505050505081526020016002820180548060200260200160405190810160405280929190818152602001828054801561267c57602002820191906000526020600020905b815481526020019060010190808311612668575b5050505050815260200160038201805480602002602001604051908101604052809291908181526020016000905b828210156127565783829060005260206000200180546126c990614a3e565b80601f01602080910402602001604051908101604052809291908181526020018280546126f590614a3e565b80156127425780601f1061271757610100808354040283529160200191612742565b820191906000526020600020905b81548152906001019060200180831161272557829003601f168201915b5050505050815260200190600101906126aa565b50505050815260200160048201805461276e90614a3e565b80601f016020809104026020016040519081016040528092919081815260200182805461279a90614a3e565b80156127e75780601f106127bc576101008083540402835291602001916127e7565b820191906000526020600020905b8154815290600101906020018083116127ca57829003601f168201915b5050505050815260200160058201805461280090614a3e565b80601f016020809104026020016040519081016040528092919081815260200182805461282c90614a3e565b80156128795780601f1061284e57610100808354040283529160200191612879565b820191906000526020600020905b81548152906001019060200180831161285c57829003601f168201915b5050505050815260200160068201805461289290614a3e565b80601f01602080910402602001604051908101604052809291908181526020018280546128be90614a3e565b801561290b5780601f106128e05761010080835404028352916020019161290b565b820191906000526020600020905b8154815290600101906020018083116128ee57829003601f168201915b505050918352505060078201546020820152600882015460409091019060ff16600281111561293c5761293c613e48565b600281111561294d5761294d613e48565b90525092915050565b600d602090815260009283526040808420909152908252902080546001820180546001600160401b03831693600160401b90930460ff1692919061299990614a3e565b80601f01602080910402602001604051908101604052809291908181526020018280546129c590614a3e565b8015612a125780601f106129e757610100808354040283529160200191612a12565b820191906000526020600020905b8154815290600101906020018083116129f557829003601f168201915b5050505050905083565b60098181548110612a2c57600080fd5b600091825260209091200154905081565b600060015460125414158015612a5557506000601154115b15612a605750600190565b50600090565b612a6e613276565b6001600160a01b038116612a9857604051631e4fbdf760e01b815260006004820152602401610ceb565b612aa18161332a565b50565b612aac6138db565b6000818152600a602052604090205481906001600160a01b0316612ae65760405163986731a160e01b815260048101829052602401610ceb565b612af1826004612d0d565b612afa82613925565b6000828152600a602052604090208054600690829060ff60e01b1916600160e01b830217905550612cb581600101805480602002602001604051908101604052809291908181526020018280548015612b7c57602002820191906000526020600020905b81546001600160a01b03168152600190910190602001808311612b5e575b505050505082600201805480602002602001604051908101604052809291908181526020018280548015612bcf57602002820191906000526020600020905b815481526020019060010190808311612bbb575b505050505083600301805480602002602001604051908101604052809291908181526020016000905b82821015612ca4578382906000526020600020018054612c1790614a3e565b80601f0160208091040260200160405190810160405280929190818152602001828054612c4390614a3e565b8015612c905780601f10612c6557610100808354040283529160200191612c90565b820191906000526020600020905b815481529060010190602001808311612c7357829003601f168201915b505050505081526020019060010190612bf8565b50505050600885015460ff166139c3565b604051839033907f7bfd03e44f31b1867e10c41d419cd8073b4719d321ccc5c3a3c79ac2babab3c390600090a35050612aa160017f9b779b17422d0df92223018b32b4d1fa46e071723d6817e2486d003becc55f0055565b6000612d188361254c565b604001519050816006811115612d3057612d30613e48565b816006811115612d4257612d42613e48565b14612d6457828160405163605cfad560e01b8152600401610ceb929190614b1b565b505050565b6040805160808082018352600080835260208084018290528385018290526060808501839052878352600a825285832054865194850187528385529184018390529483018290529382018190529192600160a01b90046001600160401b031691612dd286611ed5565b905060005b8151811015612f89576000828281518110612df457612df4614ba3565b6020026020010151905060008715612e3957506001600160401b0385166000908152600e602090815260408083206001600160a01b0385168452909152902054612eaa565b600654604051632933f0eb60e11b81526001600160a01b03848116600483015290911690635267e1d690602401602060405180830381865afa158015612e83573d6000803e3d6000fd5b505050506040513d601f19601f82011682018060405250810190612ea79190614dea565b90505b6000898152600d602090815260408083206001600160a01b0386168452909152902054600160401b900460ff166002816002811115612eeb57612eeb613e48565b03612f2b57600186600001818151612f039190614a72565b6001600160401b0316905250604086018051839190612f23908390613e1c565b905250612f7b565b6001816002811115612f3f57612f3f613e48565b03612f7b57600186602001818151612f579190614a72565b6001600160401b0316905250606086018051839190612f77908390613e1c565b9052505b505050806001019050612dd7565b509095945050505050565b6006546040805163567e98f960e01b815290516000926001600160a01b03169163567e98f99160048083019260209291908290030181865afa158015612fde573d6000803e3d6000fd5b505050506040513d601f19601f820116820180604052508101906130029190614dea565b905090565b6005546040516253517560e01b81526001600160a01b03838116600483015260009283929116906253517590602401602060405180830381865afa158015613053573d6000803e3d6000fd5b505050506040513d601f19601f820116820180604052508101906130779190614e03565b60055460405163a0d16cad60e01b81526001600160a01b03808416600483015292935091169063a0d16cad90602401602060405180830381865afa1580156130c3573d6000803e3d6000fd5b505050506040513d601f19601f820116820180604052508101906130e79190614e20565b801561315e5750600554604051635491295760e11b81526001600160a01b0383811660048301529091169063a92252ae90602401602060405180830381865afa158015613138573d6000803e3d6000fd5b505050506040513d601f19601f8201168201806040525081019061315c9190614e20565b155b9392505050565b613170836002612d0d565b600854600160801b90046001600160401b03166000908152600f6020526040902061319b9085613b06565b5060008381526010602052604090206131b49085613b06565b506040518060600160405280426001600160401b031681526020018360028111156131e1576131e1613e48565b815260209081018390526000858152600d825260408082206001600160a01b038916835283529020825181546001600160401b0390911667ffffffffffffffff19821681178355928401519192839168ffffffffffffffffff191617600160401b83600281111561325457613254613e48565b02179055506040820151600182019061326d9082614c09565b50505050505050565b336132a87f9016d09d72d40fdae2fd8ceac6b6234c7706214fd39c1cd1e609a0528c199300546001600160a01b031690565b6001600160a01b03161461196f5760405163118cdaa760e01b8152336004820152602401610ceb565b6132d96132e1565b61196f613b1b565b7ff0c57e16840df040f15088dc2f81fe391c3923bec73e23a9662efc9c229c6a0054600160401b900460ff1661196f57604051631afcd79f60e31b815260040160405180910390fd5b7f9016d09d72d40fdae2fd8ceac6b6234c7706214fd39c1cd1e609a0528c199300805473ffffffffffffffffffffffffffffffffffffffff1981166001600160a01b03848116918217845560405192169182907f8be0079c531659141344cd1fd0a4f28419497f9722a3daafe3b4186f6b6457e090600090a3505050565b6000805b825181101561365c578281815181106133c7576133c7614ba3565b60200260200101515160000315613654576000806134078584815181106133f0576133f0614ba3565b602002602001015160208101516024909101519091565b9150915060008087858151811061342057613420614ba3565b60200260200101516001600160a01b031688868151811061344357613443614ba3565b5050604080516001600160e01b0319871660248083019190915282518083039091018152604490910182526020810180517bffffffffffffffffffffffffffffffffffffffffffffffffffffffff16635f9a47c360e11b17905290516134a99190614e3d565b600060405180830381855afa9150503d80600081146134e4576040519150601f19603f3d011682016040523d82523d6000602084013e6134e9565b606091505b50915091508180156134fc575060008151115b15613641576000818060200190518101906135179190614e59565b9050600b60008a888151811061352f5761352f614ba3565b6020908102919091018101516001600160a01b031682528101919091526040016000205460ff16801561356757506000816020015151115b1561362c576002965088868151811061358257613582614ba3565b602090810291909101015160405163ba08d23760e01b81526001600160e01b031987166004820152602481018690526001600160a01b039091169063ba08d23790604401602060405180830381865afa1580156135e3573d6000803e3d6000fd5b505050506040513d601f19601f820116820180604052508101906136079190614e20565b613627576040516373330d9b60e01b815260048101859052602401610ceb565b61363b565b60019650505050505050610f46565b5061364f565b600195505050505050610f46565b505050505b6001016133ac565b5092915050565b6000826001600160a01b03168260405160006040518083038185875af1925050503d80600081146136b0576040519150601f19603f3d011682016040523d82523d6000602084013e6136b5565b606091505b5050905080612d64576040516317e3057d60e31b81523060048201526001600160a01b038416602482015260448101839052606401610ceb565b6060600061315e83613b23565b6001600160401b0381166000908152600f6020526040812061371d906136ef565b905060005b8151811015612d6457600082828151811061373f5761373f614ba3565b6020908102919091010151600654604051632933f0eb60e11b81526001600160a01b03808416600483015292935060009290911690635267e1d690602401602060405180830381865afa15801561379a573d6000803e3d6000fd5b505050506040513d601f19601f820116820180604052508101906137be9190614dea565b6001600160401b0386166000908152600e602090815260408083206001600160a01b039096168352949052929092209190915550600101613722565b60408051600481526024810182526020810180517bffffffffffffffffffffffffffffffffffffffffffffffffffffffff166001600160e01b03198516179052905160009190829081903090613851908590614e3d565b600060405180830381855afa9150503d806000811461388c576040519150601f19603f3d011682016040523d82523d6000602084013e613891565b606091505b5091509150816138b457604051635fbab09b60e11b815260040160405180910390fd5b808060200190518101906138c89190614dea565b95945050505050565b6000610f46825490565b7f9b779b17422d0df92223018b32b4d1fa46e071723d6817e2486d003becc55f0080546001190161391f57604051633ee5aeb560e01b815260040160405180910390fd5b60029055565b60006139308261254c565b905060015481610120015160016139479190613e1c565b1461396857604051631902d7cf60e01b815260048101839052602401610ceb565b6001816101400151600281111561398157613981613e48565b148015613998575080516001600160a01b03163314155b156139bf57604051636d0e083b60e11b815260048101839052336024820152604401610ceb565b5050565b60005b8451811015613ad9576000808360028111156139e4576139e4613e48565b146139f0576000613a0b565b848281518110613a0257613a02614ba3565b60200260200101515b9050600080878481518110613a2257613a22614ba3565b60200260200101516001600160a01b031683878681518110613a4657613a46614ba3565b6020026020010151604051613a5b9190614e3d565b60006040518083038185875af1925050503d8060008114613a98576040519150601f19603f3d011682016040523d82523d6000602084013e613a9d565b606091505b5091509150613aac8282613b7f565b508215613acb578260046000828254613ac59190614a92565b90915550505b5050508060010190506139c6565b5050505050565b60017f9b779b17422d0df92223018b32b4d1fa46e071723d6817e2486d003becc55f0055565b600061315e836001600160a01b038416613b9b565b613ae06132e1565b606081600001805480602002602001604051908101604052809291908181526020018280548015613b7357602002820191906000526020600020905b815481526020019060010190808311613b5f575b50505050509050919050565b606082613b9457613b8f82613bea565b610f46565b5080610f46565b6000818152600183016020526040812054613be257508154600181810184556000848152602080822090930184905584548482528286019093526040902091909155610f46565b506000610f46565b805115613bfa5780518082602001fd5b604051630a12f52160e11b815260040160405180910390fd5b828054828255906000526020600020908101928215613c4e579160200282015b82811115613c4e578251825591602001919060010190613c33565b50613c5a929150613d9a565b5090565b828054828255906000526020600020908101928215613c4e579160200282015b82811115613c4e578251825473ffffffffffffffffffffffffffffffffffffffff19166001600160a01b03909116178255602090920191600190910190613c7e565b828054828255906000526020600020908101928215613d06579160200282015b82811115613d065782518290613cf69082614c09565b5091602001919060010190613ce0565b50613c5a929150613daf565b5080546000825590600052602060002090810190612aa19190613d9a565b6040805161016081018252600080825260208201819052909182019081526020016060815260200160608152602001606081526020016060815260200160608152602001606081526020016000815260200160006002811115613d9557613d95613e48565b905290565b5b80821115613c5a5760008155600101613d9b565b80821115613c5a576000613dc38282613dcc565b50600101613daf565b508054613dd890614a3e565b6000825580601f10613de8575050565b601f016020900490600052602060002090810190612aa19190613d9a565b634e487b7160e01b600052601160045260246000fd5b80820180821115610f4657610f46613e06565b600060208284031215613e4157600080fd5b5035919050565b634e487b7160e01b600052602160045260246000fd5b60078110613e6e57613e6e613e48565b9052565b60005b83811015613e8d578181015183820152602001613e75565b50506000910152565b60008151808452613eae816020860160208601613e72565b601f01601f19169290920160200192915050565b60038110612aa157612aa1613e48565b613e6e81613ec2565b60006101006001600160a01b038b1683526001600160401b038a166020840152613f08604084018a613e5e565b806060840152613f1a81840189613e96565b90508281036080840152613f2e8188613e96565b905082810360a0840152613f428187613e96565b9150508360c0830152613f5483613ec2565b8260e08301529998505050505050505050565b60038110612aa157600080fd5b634e487b7160e01b600052604160045260246000fd5b604080519081016001600160401b0381118282101715613fac57613fac613f74565b60405290565b604051601f8201601f191681016001600160401b0381118282101715613fda57613fda613f74565b604052919050565b80356001600160401b0381168114613ff957600080fd5b919050565b60008082840360a081121561401257600080fd5b833561401d81613f67565b92506080601f198201121561403157600080fd5b50604051608081018181106001600160401b038211171561405457614054613f74565b60405261406360208501613fe2565b815261407160408501613fe2565b60208201526060840135604082015260808401356060820152809150509250929050565b60008083601f8401126140a757600080fd5b5081356001600160401b038111156140be57600080fd5b6020830191508360208285010111156140d657600080fd5b9250929050565b6000806000604084860312156140f257600080fd5b8335925060208401356001600160401b0381111561410f57600080fd5b61411b86828701614095565b9497909650939450505050565b6000806000806060858703121561413e57600080fd5b84359350602085013561415081613f67565b925060408501356001600160401b0381111561416b57600080fd5b61417787828801614095565b95989497509550505050565b60006001600160401b0383111561419c5761419c613f74565b6141af601f8401601f1916602001613fb2565b90508281528383830111156141c357600080fd5b828260208301376000602084830101529392505050565b600082601f8301126141eb57600080fd5b61315e83833560208501614183565b60006001600160401b0382111561421357614213613f74565b5060051b60200190565b600082601f83011261422e57600080fd5b8135602061424361423e836141fa565b613fb2565b8083825260208201915060208460051b87010193508684111561426557600080fd5b602086015b84811015614281578035835291830191830161426a565b509695505050505050565b6000806000606084860312156142a157600080fd5b83356001600160401b03808211156142b857600080fd5b6142c4878388016141da565b945060208601359150808211156142da57600080fd5b6142e6878388016141da565b935060408601359150808211156142fc57600080fd5b506143098682870161421d565b9150509250925092565b6001600160a01b0381168114612aa157600080fd5b60008060008060008060c0878903121561434157600080fd5b863561434c81614313565b9550602087013561435c81614313565b9450604087013561436c81614313565b9350606087013561437c81614313565b92506080870135915061439160a08801613fe2565b90509295509295509295565b8015158114612aa157600080fd5b600080604083850312156143be57600080fd5b82356143c981614313565b915060208301356143d98161439d565b809150509250929050565b600080604083850312156143f757600080fd5b8235915060208301356143d981614313565b600082601f83011261441a57600080fd5b8135602061442a61423e836141fa565b8083825260208201915060208460051b87010193508684111561444c57600080fd5b602086015b8481101561428157803561446481614313565b8352918301918301614451565b600082601f83011261448257600080fd5b8135602061449261423e836141fa565b82815260059290921b840181019181810190868411156144b157600080fd5b8286015b848110156142815780356001600160401b038111156144d45760008081fd5b8701603f810189136144e65760008081fd5b6144f7898683013560408401614183565b8452509183019183016144b5565b60008060008060008060c0878903121561451e57600080fd5b86356001600160401b038082111561453557600080fd5b6145418a838b01614409565b9750602089013591508082111561455757600080fd5b6145638a838b0161421d565b9650604089013591508082111561457957600080fd5b6145858a838b01614471565b9550606089013591508082111561459b57600080fd5b6145a78a838b016141da565b945060808901359150808211156145bd57600080fd5b6145c98a838b016141da565b935060a08901359150808211156145df57600080fd5b506145ec89828a016141da565b9150509295509295509295565b6001600160e01b031981168114612aa157600080fd5b60006020828403121561462157600080fd5b813561315e816145f9565b6000806040838503121561463f57600080fd5b8235915060208301356143d981613f67565b6000806000806080858703121561466757600080fd5b84356001600160401b038082111561467e57600080fd5b61468a88838901614409565b955060208701359150808211156146a057600080fd5b6146ac8883890161421d565b945060408701359150808211156146c257600080fd5b6146ce88838901614471565b935060608701359150808211156146e457600080fd5b506146f1878288016141da565b91505092959194509250565b60008151808452602080850194506020840160005b8381101561472e57815187529582019590820190600101614712565b509495945050505050565b60208152600061315e60208301846146fd565b60006020828403121561475e57600080fd5b81356001600160401b0381111561477457600080fd5b614780848285016141da565b949350505050565b60008151808452602080850194506020840160005b8381101561472e5781516001600160a01b03168752958201959082019060010161479d565b60208152600061315e6020830184614788565b60028110613e6e57613e6e613e48565b6001600160401b038581168252848116602083015283166040820152608081016138c860608301846147d5565b602080825282516001600160e01b0319168282015282015160408083015260009061478060608401826146fd565b6000806040838503121561485357600080fd5b823561485e816145f9565b946020939093013593505050565b60008282518085526020808601955060208260051b8401016020860160005b848110156148b957601f198684030189526148a7838351613e96565b9884019892509083019060010161488b565b5090979650505050505050565b602081526148e06020820183516001600160a01b03169052565b600060208301516148fc60408401826001600160401b03169052565b50604083015161490f6060840182613e5e565b50606083015161016080608085015261492c610180850183614788565b91506080850151601f19808685030160a087015261494a84836146fd565b935060a08701519150808685030160c0870152614967848361486c565b935060c08701519150808685030160e08701526149848483613e96565b935060e087015191506101008187860301818801526149a38584613e96565b9450808801519250506101208187860301818801526149c28584613e96565b908801516101408881019190915288015190945091506149e6905082860182613ed2565b5090949350505050565b600060208284031215614a0257600080fd5b813561315e81614313565b6001600160401b0384168152614a2283613ec2565b8260208201526060604082015260006138c86060830184613e96565b600181811c90821680614a5257607f821691505b6020821081036111ee57634e487b7160e01b600052602260045260246000fd5b6001600160401b0381811683821601908082111561365c5761365c613e06565b81810381811115610f4657610f46613e06565b8082028115828204841417610f4657610f46613e06565b600082614ad957634e487b7160e01b600052601260045260246000fd5b500490565b81835281816020850137506000828201602090810191909152601f909101601f19169091010190565b602081526000614780602083018486614ade565b8281526040810161315e6020830184613e5e565b60208101610f4682846147d5565b614b4684613ec2565b8381526040602082015260006138c8604083018486614ade565b606081526000614b736060830186613e96565b8281036020840152614b858186613e96565b90508281036040840152614b9981856146fd565b9695505050505050565b634e487b7160e01b600052603260045260246000fd5b601f821115612d64576000816000526020600020601f850160051c81016020861015614be25750805b601f850160051c820191505b81811015614c0157828155600101614bee565b505050505050565b81516001600160401b03811115614c2257614c22613f74565b614c3681614c308454614a3e565b84614bb9565b602080601f831160018114614c6b5760008415614c535750858301515b600019600386901b1c1916600185901b178555614c01565b600085815260208120601f198616915b82811015614c9a57888601518255948401946001909101908401614c7b565b5085821015614cb85787850151600019600388901b60f8161c191681555b5050505050600190811b01905550565b60c081526000614cdb60c0830189614788565b8281036020840152614ced81896146fd565b90508281036040840152614d01818861486c565b90508281036060840152614d158187613e96565b90508281036080840152614d298186613e96565b905082810360a0840152614d3d8185613e96565b9998505050505050505050565b60208101614d5783613ec2565b91905290565b608081526000614d706080830187614788565b8281036020840152614d8281876146fd565b90508281036040840152614d96818661486c565b91505082606083015295945050505050565b60208152600061315e6020830184613e96565b60608101614dc982866147d5565b6001600160401b038085166020840152808416604084015250949350505050565b600060208284031215614dfc57600080fd5b5051919050565b600060208284031215614e1557600080fd5b815161315e81614313565b600060208284031215614e3257600080fd5b815161315e8161439d565b60008251614e4f818460208701613e72565b9190910192915050565b60006020808385031215614e6c57600080fd5b82516001600160401b0380821115614e8357600080fd5b9084019060408287031215614e9757600080fd5b614e9f613f8a565b8251614eaa816145f9565b81528284015182811115614ebd57600080fd5b80840193505086601f840112614ed257600080fd5b82519150614ee261423e836141fa565b82815260059290921b83018401918481019088841115614f0157600080fd5b938501935b83851015614f1f57845182529385019390850190614f06565b94820194909452969550505050505056fea264697066735822122027cb686d71d67e719e543ae22ca24092245c6111ecebfff5ae130091b96ca7c364736f6c63430008190033",
  "linkReferences": {},
  "deployedLinkReferences": {}
}